:020000040800F2
:10000000A0040020010100084B160008C1130008DD
:1000100049160008550200081D17000800000000DE
:100020000000000000000000000000006F16000843
:1000300057020008000000006D1600087116000845
:100040001B0100081B0100081B0100081B01000820
:100050001B0100081B0100081B0100081B01000810
:100060001B0100081B0100081B0100081B01000800
:100070001B0100081B0100081B0100081B010008F0
:100080001B0100081B0100081B0100081B010008E0
:100090001B0100081B0100081B0100081B010008D0
:1000A0001B0100081B0100081B0100081B010008C0
:1000B0001B0100081B0100081B0100081B010008B0
:1000C0001B0100081B0100081B0100081B010008A0
:1000D0001B0100081B0100081B0100081B01000890
:1000E0001B0100081B0100081B010008DFF80CD0F1
:1000F00000F040F800480047DD190008A004002087
:100100000648804706480047FEE7FEE7FEE7FEE7B1
:10011000FEE7FEE7FEE7FEE7FEE7FEE7D51600088E
:10012000ED000008D2B201E000F8012B491EFBD21D
:1001300070470022F6E710B513460A4604461946F2
:10014000FFF7F0FF204610BD30B50B4601460020FA
:100150002022012409E021FA02F59D4205D303FA89
:1001600002F5491B04FA02F52844151EA2F101020A
:10017000F1DC30BD064C074D06E0E06840F00103BD
:1001800094E8070098471034AC42F6D3FFF7B2FF6B
:10019000441B0008641B000870B5044600688168B1
:1001A000C943C9071CD1816821F00101816000F0B9
:1001B00091FB05460FE000BF00F08CFB401B0228BE
:1001C00009D9A06A40F01000A062E06A40F0010086
:1001D000E062012070BD20688068C043C007EBD09A
:1001E000002070BDF8B500260446009600688168BE
:1001F000C943C90728D0816841F0010181601348D3
:1002000013490068B0FBF1F000E0401E00900028A8
:10021000FBD100F05FFB054611E000BF00F05AFB88
:10022000401B02280BD9A06A40F01000A062E06ACF
:1002300040F00100E06284F824600120F8BD2068ED
:100240008068C043C007E9D10020F8BD1400002039
:1002500040420F00FEE77047F8B50024009490F884
:1002600024202546012A12D0012280F824204A6841
:100270001F23072A0DD20668776B521E02EB8202FB
:1002800093409F430B6893401F43776319E002201C
:10029000F8BD06680D2A0AD2376BD21F02EB820224
:1002A00093409F430B6893401F43376309E0F76A0D
:1002B0000D3A02EB820293409F430B6893401F4329
:1002C000F7620A68072306680A2A0AD3F7680A3A17
:1002D00002EB420293409F438B6893401F43F760B9
:1002E00008E0376902EB420293409F438B689340DA
:1002F0001F4337610A68102A01D0112A20D1124BFE
:1003000002689A4217D193681B0219D4936843F488
:10031000000393600968102912D10C490C4A09683E
:10032000B1FBF2F101EB8101490000E0491E0091AF
:100330000029FBD104E0816A41F02001816201249F
:1003400080F824502046F8BD00240140140000200D
:1003500040420F000068C06C704700002DE9F0417A
:100360004FF0000704003D467ED0A06A002628B961
:10037000E66284F82460204600F07EF82046FFF70D
:100380000BFFA16AC90600D420B1A06A40F010009A
:10039000A06269E0A16A21F4885141F00201A162E2
:1003A0006268E169E3680A4347EA43010A43A168D6
:1003B0004FF48077B94209D0012907D05FF00001DE
:1003C000D4F814C0BCF1010F02D00AE03946F7E7B7
:1003D000F3B1A36A43F02003A362E36A43F001038D
:1003E000E3622368D3F804C02CF4694C4CEA010C96
:1003F000C3F804C021688B68DFF870C003EA0C03FF
:1004000013438B60A168B9420BD0012909D00CE0DD
:10041000DFF85CC0A3690CEB43330B4343F400618A
:10042000DFE7218A0D05A5F580152168CB6A23F445
:1004300070032B43CB62216889680E4B19409142AF
:1004400008D1E662A16A21F0020141F00101A16236
:10045000BDE8F081A06A20F0020040F01000A06228
:10046000E06A40F00100E0620120F1E7FDF7E1FF02
:1004700000E0FFFFFE0E1FFF00B585B000210091D8
:1004800001910291039100680E49884218D10E48EB
:10049000816941F400718161816901F40071049105
:1004A000816941F0040181618069694600F00400BE
:1004B00004900120009003200190044800F02CF9E2
:1004C00005B000BD002401400010024000080140BA
:1004D0002DE9F84300260D460446009600F0FAF98F
:1004E000804620688168C90508D5A06A40F02000D0
:1004F000A06284F824600120BDE8F8834168C90542
:1005000003D4C06A10F4700F26D0022000F0DCFB88
:1005100038490968B1FBF0F72068036936490B4296
:100520004FEA61014FEAA1121BD1C3684FEA611C77
:1005300013EA0C0F15D103690B4221D1C068104298
:100540001ED114201FE0681C06D045B300F0C2F98C
:10055000A0EB0800A84222D8206800688007F2D5E6
:100560002AE003690B4202D1C168114206D0026938
:1005700022490A4206D1C068084203D1542002E051
:10058000292000E0FC204743009813E0681C0ED0AF
:100590002DB100F09FF9A0EB0800A84207D9A06A8E
:1005A00040F00400A06284F824600320A4E70098CF
:1005B000401C0090B842E9D321686FF01200086037
:1005C000A06A40F40070A06220688068C0F34240D6
:1005D00007280CD1E06850B9A06A20F48070A062AE
:1005E000A06AC00403D4A06A40F00100A062002009
:1005F00082E700001400002024499224499224003C
:1006000070B5044690F8240001280DD0012084F82C
:1006100024002046FFF7E6FD02004FF0000005D061
:1006200084F82400104670BD022070BDA16A40F21B
:100630000123994341F48071A1621F4D23681F4932
:10064000AB4218D10E6816F4702F14D0A66A46F487
:100650008016A6620E68760505D5A66A26F40056B1
:1006600046F48056A662A66AF6040AD5E66A26F023
:100670000606E66206E0A66A26F48016A6625E68B2
:10068000E9E7E06284F824006FF002001860206857
:100690008368C3F34243072B05D1A84208D10968F8
:1006A00011F4702F04D0816841F480118160B9E7A2
:1006B000816841F4A001F9E70028014004240140C9
:1006C00010B5044690F82400012807D0012084F8D2
:1006D00024002046FFF760FD10B107E0022010BDA6
:1006E000A16A21F4885141F00101A162002184F83E
:1006F000241010BD70B5044600F0ECF80546601CEF
:1007000002D004480078044400F0E4F8401BA04202
:10071000FAD370BD080000202DE9F84FDFF890A152
:1007200000220AF1040B144601274FF00F090BF1C8
:10073000040E00BF0B6807FA04F52B40AB4274D1DE
:10074000DFF870C14E68A6EB0C0866452BD00DDCB7
:10075000032E34D005DC36B3012E19D0022E2FD152
:100760001BE0112E16D0122E2AD119E0B8F5881FE1
:1007700019D006DCB8F5803F15D0B8F5801F1FD121
:1007800011E0B8F5001F0ED0B8F5041F18D10AE02B
:10079000CA6815E0CA68121D12E0CA6808320FE084
:1007A000CA680C320CE08A682AB1012A4FF00802AC
:1007B00003D0456104E0042202E0056100E000226C
:1007C000FF2B01D8064601E000F104064FEA84053C
:1007D00001D9A5F12005D6F800C009FA05F82CEAE0
:1007E000080C02FA05F54CEA050CC6F800C04D6885
:1007F000ED0057D5304DAE6946F00106AE61AD69EA
:1008000024F0030605F0010500952C4D06EB050CC0
:10081000DCF80850A6074FEA167809FA08F6B5433F
:10082000274EB04202D1002610E03BE0254EB042F8
:1008300001D101260AE0244EB04201D1022605E092
:10084000224EB04201D1032600E0042606FA08F643
:100850002E43CCF808604D68DAF80060ED03554689
:1008600001D51E4300E09E432E604D68DBF800601A
:10087000AD035D4601D51E4300E09E432E604D68EA
:10088000DEF80060ED02754601D51E4300E09E4390
:100890002E604D68AD020E4D2E6801D51E4300E05E
:1008A0009E432E60641C102CFFF444AFBDE8F88F0B
:1008B000000401400000111000100240000001403F
:1008C00000080140000C01400010014000140140EC
:1008D0000C040140014880687047000008000020B7
:1008E00070B504001BD094F83D00002520B984F8B1
:1008F0003C50204600F030F9242084F83D00206868
:10090000016821F00101016000F06EFB404A61685E
:10091000914201D83F4900E03F49884201D201207D
:1009200070BD3E492368B0FBF1F1596063689342A2
:1009300006D94FF4967359434FF47A73B1FBF3F130
:100940002368491C19626168914210D84900401E11
:10095000B0FBF1F2521CC2F30B02042A01D20420B4
:1009600022E0B0FBF1F0401CC0F30B001CE0A368D8
:10097000CBB301EBC10202EB0116421EB2FBF6F251
:10098000521C42F48042120536D06BB301EBC10217
:1009900002EB0111401EB0FBF1F0401CC0F30B0054
:1009A00040F4804040F400402168C861D4E9070168
:1009B000084321680860D4E903100843216888606F
:1009C000D4E9050108432168C8602068016841F046
:1009D000010101602564202084F83D00256384F82E
:1009E0003E50002070BD00E008E001EB4106421ED1
:1009F000B2FBF6F2521CC6E70120D5E701EB41013C
:100A0000401EB0FBF1F0401CC0F30B00CAE7000031
:100A1000A086010080841E0000093D0040420F00B6
:100A20002DE9F84F1F4690468A460446DDF8289087
:100A3000FFF750FF064694F83D0020287ED1192389
:100A4000012243492046009600F041FD00287DD157
:100A500094F83C00012879D0012084F83C002068FB
:100A60000168C90703D1016841F0010101602068F4
:100A7000016821F400610160212084F83D0010200C
:100A800084F83E0000252564C4F824806785314839
:100A9000E062608D208533464A465146204600F08C
:100AA000A5FC28B1206C84F83C5004284CD00DE003
:100AB000206841698069009030E03246494620460E
:100AC00000F07AFD28B1206C042838D00320BDE85E
:100AD000F88F606A411C6162216800780861608D4E
:100AE000401E6085208D401E80B2208521684A69A5
:100AF000D24352070BD450B1606A421C6262007844
:100B00000861608D401E6085208D401E2085324624
:100B10004946204600F0B4FC0028D4D1208D00289E
:100B2000CBD154F83D0B016841F4007101602020E5
:100B300004F81E09E57765770020C8E706E020681D
:100B4000016841F4007101600120C0E70220BEE7A6
:100B5000020010000000FFFF10B586B000210091D8
:100B600001910291039100680F4988421AD10F4CFC
:100B7000A06940F00800A061A069694600F0080083
:100B80000490C02000901220019003200390084898
:100B9000FFF7C2FDE06940F40010E061E06900F495
:100BA0000010049006B010BD005400400010024038
:100BB000000C01400248816802781144816070474E
:100BC00008000020074810B5016841F010010160DD
:100BD000032000F067F8002000F006F800F024F889
:100BE000002010BD0020024070B50D4D04464FF4AA
:100BF0007A712878B1FBF0F00A490968B1FBF0F08E
:100C000000F0CAFB48B9102C07D200222146501E22
:100C100000F028F800206C6070BD012070BD00005D
:100C200008000020140000200C4808B5816941F03C
:100C300001018161816901F001010091C16941F007
:100C40008051C161C06900F0805000900448416843
:100C500021F0E06141F00071416008BD00100240E8
:100C600000000140F0B40E4B1B680C46C3F3022396
:100C7000C3F10705042D00D90425191D072901D248
:100C8000002300E0DB1E012606FA05F1491E214083
:100C900099409E40761E16403143F0BC00F0D6BC11
:100CA0000CED00E0064900F0070208684FF6FF036C
:100CB000184040EA0220034A1043086070470000D1
:100CC0000CED00E00000FA0510B529A401461DCC8A
:100CD00086B08DE81D002AA02A4C006804900020F0
:100CE000012923D002293AD010291DD16168226838
:100CF000D20119D5C1F38342C9031DF8020009D5F9
:100D0000616804AAC1F34041515C1F4AB2FBF1F192
:100D1000484301E01D4948436168490204D440004A
:100D20005FF00301B0FBF1F006B010BD226AC2F320
:100D30000121012903D1920701D5C803F4E7022953
:100D400005D1626A920702D549F64040ECE70329D3
:100D5000EAD121688903E7D54FF22440E4E700F0A7
:100D600053F96168C1F38131491C4900DAE7000099
:100D700002030405060708090A0B0C0D0E0F1010DC
:100D8000010200000010024000127A0000093D003C
:100D90002DE9F84305460078354CC00754D0E0698A
:100DA0000026C00008D4E06940F08050E061E069AE
:100DB000012600F0805000902E480168C90512D429
:100DC0000168804641F480710160FFF783FD0746AA
:100DD00005E000BFFFF77EFDC01B642823D8D8F8CC
:100DE0000000C005F6D5206A10F4407021D0A98813
:100DF00001F4407181421CD0206A1F49012220F475
:100E000040700A6000220A602062C00711D0FFF71C
:100E100061FD074641F2883808E000BFFFF75AFD40
:100E2000C11B414502D90320BDE8F883206A800731
:100E3000F4D5206A696820F44070084320621EB12E
:100E4000E06920F08050E0612878800705D560686F
:100E5000A96820F44040084360602878C00605D5A2
:100E60006068E96820F48000084360600020DBE7E8
:100E70000010024000700040400442422DE9F0475B
:100E8000DFF8548105460E46D8F8000000F0070050
:100E9000B0420CD2D8F8001021F007013143C8F855
:100EA0000010D8F8000000F00700B0426FD12868A9
:100EB0004A4C810712D5400703D5606840F4E060D2
:100EC00060602878000703D5606840F46050606077
:100ED0006068A96820F0F000084360602878C007C7
:100EE00044D06868012816D02168022816D08907E6
:100EF00000294CDA616821F0030101436160FFF7CA
:100F0000E9FC6968074641F2883001290ED00229C0
:100F1000814618D026E021688903E9E78901E7E7DF
:100F2000FFF7D8FCC11B494501D918E0814660682C
:100F3000C0F381000128F3D118E000BFFFF7CAFC1D
:100F4000C11B49450BD86068C0F381000228F5D168
:100F50000CE000BFFFF7BEFCC11B494502D90320CE
:100F6000BDE8F087606810F00C0FF3D1D8F80010DE
:100F7000404601F00701B1420BD9016821F0070199
:100F800031430160006800F00700B04201D0012049
:100F9000E6E72878400705D56068E96820F4E06056
:100FA000084360602878000706D56068296920F446
:100FB000605040EAC100606000F036F86168084A9D
:100FC000C1F30311515CC840064908600020FFF7D7
:100FD0000BFE0020C4E70000002002400010024089
:100FE0002C1B0008140000200448054900684968CB
:100FF000044AC1F30221515CC8407047140000202C
:10100000001002403C1B000804480549006849687C
:10101000044AC1F3C221515CC8407047140000204B
:10102000001002403C1B000812A185B00FC98DE8DA
:101030000F0014A0144A006804905168134801F08E
:101040000C03042B10D0082B0ED1C1F38343C9032A
:101050001DF803000AD5516804AAC1F34041515C50
:101060000A4A5043B0FBF1F005B0704708494843C5
:10107000FAE7000002030405060708090A0B0C0D35
:101080000E0F1010010200000010024000127A0042
:1010900000093D002DE9F84F04460078B94DC0071E
:1010A00048D06868C0F38100012807D06868C0F3A1
:1010B0008100022809D16868C00306D5286880032A
:1010C00038D5606800286FD034E06068B0F5803FA4
:1010D0000BD010B1B0F5A02F11D0286820F48030CB
:1010E0002860286820F4802002E0286840F48030DE
:1010F0002860606888B1FFF7EDFB064609E02868C4
:1011000040F480202860F0E7FFF7E4FB801B6428B0
:1011100075D828688003F7D50CE0FFF7DBFB06469F
:1011200005E000BFFFF7D6FB801B6428F0D82868D5
:101130008003F7D42078944E80074FF001094FF0D8
:1011400000083BD5686810F00C0F07D06868C0F342
:101150008100022809D16868C00306D42868800786
:1011600014D5206901281FD110E02069B0B1C6F85C
:101170000090FFF7AFFB074605E000BFFFF7AAFBB3
:10118000C01B0228C4D828688007F7D52868616981
:1011900020F0F80040EAC10028600FE0C6F80080A7
:1011A000FFF798FB074606E0E9E000BFFFF792FB78
:1011B000C01B022823D828688007F7D420780007AE
:1011C0002CD57248A169D9B1C0F80090FFF782FB15
:1011D000074604E0FFF77EFBC01B02280FD8686AB1
:1011E0008007F7D56A484FF4FA510068B0FBF1F078
:1011F000009000BF0098411E0091FAD20EE080E0FE
:10120000C0F80080FFF766FB074604E0FFF762FBCB
:10121000C01B022875D8686A8007F7D42078400779
:1012200060D5E8690027C00008D4E86940F0805024
:10123000E861E869012700F0805000905548016896
:10124000C90513D40168834641F480710160FFF73A
:1012500041FB824606E000BFFFF73CFBA0EB0A0023
:1012600064284ED8DBF80000C005F5D5E0680128F9
:101270000AD008B1052813D0286A20F0010028629E
:10128000286A20F0040002E0286A40F00100286289
:10129000E06841F2883B98B1FFF71CFB82460BE007
:1012A000286A40F004002862EEE700BFFFF712FB57
:1012B000A0EB0A0159455AD8286A8007F6D50CE0F8
:1012C000FFF708FB824605E0FFF704FBA0EB0A01ED
:1012D00059454CD8286A8007F6D41FB1E86920F038
:1012E0008050E861E06988B36968C1F3810102292F
:1012F00045D00228C6F8608004D0FFF7EBFA044618
:1013000038E034E0FFF7E6FA074604E0FFF7E2FAD8
:10131000C01B02282BD828688001F7D4206AB0F5BA
:10132000803F05D16868A16820F4003008436860F8
:10133000D4E908010843696821F47411084368601E
:10134000C6F86090FFF7C6FA044606E015E000BF55
:10135000FFF7C0FA001B022809D828688001F7D5DA
:101360000BE000BFFFF7B6FA001B022802D90320EA
:10137000BDE8F88F28688001F4D40020F8E7012048
:10138000F6E70000001002400000424280044242A2
:10139000140000200070004010B5401EB0F1807FA6
:1013A00001D3012010BD4FF0E02460610F216017D0
:1013B00000F04CF90020A06107202061002010BD42
:1013C000FEE701684A69D24352050CD46FF480628B
:1013D0004A6104210164002140F8301F2022427339
:1013E000017301207047002070470000F8B50446E3
:1013F000C06A1E460D461746042807D0012805D0AE
:1014000010F5803F02D0206B122804D120680168BB
:1014100041F480710160134600224FF00111204613
:10142000009600F054F8A0B92069B0F5804F12D0B2
:101430000620216800EAD51040F0F000086133462C
:101440003A460E49204600F073F838B1206C042863
:1014500011D00320F8BD05F0FE0000E0E8B22168DD
:101460000861064933463A46891F204600F060F875
:101470000028EBD1F8BD0120F8BD000008000100F4
:1014800070B516460D4604461AE02046FFF799FF50
:1014900008B1012070BD681C12D025B1FFF71AFAFF
:1014A000801BA8420CD954F8400F40F0200044F8AB
:1014B000100900202060202161732073032070BD7B
:1014C00020684069C0434007DFD4002070BD2DE98B
:1014D000F0471E4690460D460446C1F30747DDF827
:1014E000209012E0701C10D02EB1FFF7F3F9A0EBA2
:1014F0000900B04209D9002044F8300F202161735F
:10150000A07320730320BDE8F0872068012F0AD064
:10151000806925EA00000004000C06D00021414546
:10152000E0D00020EFE74069F3E70121F7E7000092
:101530002DE9F0479A4691460D46044600264FF0A5
:101540002008C1F307472AE020684069C0434005EE
:1015500012D42068016841F40071016021686FF4C1
:101560008060486104202064266384F83D8084F80C
:101570003C600120BDE8F087B9F1FF3F0FD0B9F121
:10158000000F05D0FFF7A6F9A0EB0A01494506D9DF
:1015900044F8306F84F80D8026730320EAE7206852
:1015A000012F07D0D0F8180025EA00000004000C35
:1015B000E0D0C9E74069F7E770B516460D46044626
:1015C0001AE02046FFF7FDFE08B1012070BD681C3F
:1015D00012D025B1FFF77EF9801BA8420CD954F830
:1015E000400F40F0200044F8100900202060202126
:1015F00061732073032070BD20684069C0430006FA
:10160000DFD4002070BD00003EB500240D480094DA
:10161000019402948460C460094944610160012519
:1016200005614FF460214460C161FEF797FECDE98A
:101630000045694603480294FEF70EFE3EBD0000D9
:101640000024014018000020FEE770470907090E3A
:10165000002806DA00F00F0000F1E02080F8141DE9
:10166000704700F1E02080F8001470477047704721
:10167000FFF7A0BA30B593B028216846FEF759FDB0
:1016800014210AA8FEF755FD002401200F941094A0
:101690001194010412948DE8130004904FF4E010AB
:1016A000CDE90810022507956846FFF7F3FC0F20E7
:1016B000CDE90A056802CDE90C4002210AA80E9482
:1016C000FFF7DCFBA80311900F950FA8FFF760FB55
:1016D00013B030BD0D48016841F00101016041685F
:1016E0000B4A1140416001680A4A114001600168DB
:1016F00021F480210160416821F4FE0141604FF432
:101700001F0181600449C003086070470010024057
:101710000000FFF8FFFFF6FE08ED00E0FEE7000026
:101720000FB4084B10B504A902AA039800F01CF8E6
:10173000044602A9002000F0C1F8204610BC5DF864
:1017400014FB0000BD18000802E008C8121F08C101
:10175000002AFAD170477047002001E001C1121F32
:10176000002AFBD1704700002DE9FF4F89B09B464E
:101770000446002506E025280BD05A460B999047D1
:10178000641C6D1C20780028F5D10DB02846BDE8FA
:10179000F08F0027B8460122474900E0074314F8BC
:1017A000013F203B02FA03F00842F7D120782E28AF
:1017B00019D114F8010F47F004072A280ED06FF052
:1017C0002F022078A0F1300109290CD808EB8801FC
:1017D00002EB410100EB0108641CF2E70A98641C6B
:1017E00050F8048B0A9020780028CED0642808D0C6
:1017F000692806D075281ED05A460B9990476D1C53
:1018000058E00A994FF00A0901C90A91002802DA42
:1018100040422D2102E0390504D52B218DF82010FE
:10182000012103E0F90704D02021F7E78A4608AE3A
:101830000DE00021FAE70A994FF00A0901C90A915F
:10184000F7E74946FEF780FC303106F8011D002815
:10185000F7D1ADEB060000F12009780701D44FF075
:101860000108C84502DDA8EB090000E00020804621
:10187000002706E008A85A46C05D0B9990476D1CEA
:101880007F1C5745F6DB04E030205A460B99904701
:101890006D1CB8F10001A8F10108F5DC05E016F8AF
:1018A000010B5A460B9990476D1CB9F10001A9F143
:1018B0000109F4DC641C65E7092801000A68531C6F
:1018C0000B601070704710B5012000F031F8BDE8D2
:1018D00010400520FEF70EBF51B101290BD002299F
:1018E0000BD05430C0B240F0800000BF00F020B8F0
:1018F00040F08000FAE74030F4E71430F2E710B52A
:10190000022000F015F8BDE810400520FEF7F2BEF9
:1019100010B5022000F00CF8282000F009F80C2087
:1019200000F006F8BDE81040802000F001B800008B
:101930001CB500F0F00141F00C028DF8042041F0DC
:10194000080100018DF8051040F00C018DF806101B
:1019500040F008008DF8070064200090042301AADD
:101960007E210248FFF75CF81CBD00004800002003
:101970001CB500F0F00141F00D028DF8042041F09B
:10198000090100018DF8051040F00D018DF80610D9
:1019900040F009008DF8070064200090042301AA9C
:1019A0007E210248FFF73CF81CBD000048000020E3
:1019B00010B5044602E0641CFFF7DAFF2078002827
:1019C000F9D110BD10B5C020FFF7B2FF0C20FFF712
:1019D000AFFFBDE810400520FEF78CBE08B5FFF74D
:1019E000F1F8FFF795FFFFF745FE3E48816941F0AA
:1019F00020018161816901F020010091816941F03C
:101A000004018161816901F004010091816941F063
:101A100008018161806900F008000090FFF7F4FD83
:101A2000324831494FF48042016031494160002120
:101A30008160C0E9031241618161C1610162FEF709
:101A40004FFFFFF740FFFFF75AFF2AA0FFF7B0FF55
:101A5000FFF7B8FF2AA0FFF7ABFF41F28836FF255A
:101A60004FF47A674FF4967820483038FEF7C8FD77
:101A70001E4831463038FEF72BFD1C483038FEF743
:101A800069FC00233A461946009500F045F80446E3
:101A900002461EA11E48FFF743FE642C0FD201210F
:101AA0000C20FFF719FF1BA0FFF782FF0A2C06D2BC
:101AB00001210B20FFF710FF16A0FFF779FF01218E
:101AC0000A20FFF709FF1248FFF772FF0748303876
:101AD000FEF7F6FDC020FFF72BFF4046FEF70AFE9B
:101AE000C2E70000001002400054004048000020FF
:101AF000A08601004D696C6973616E6979650000AB
:101B0000506F742064656765723D000025690000B0
:101B1000000000202000000010B5401A029CE41ACA
:101B20006043511A90FBF1F0184410BD0000000012
:101B3000000000000102030406070809000000007D
:101B400001020304641B00080000002018000000CC
:101B5000481700087C1B00081800002088040000BB
:101B600058170008000000000000000001000000FD
:0C1B7000100000000000000000A24A0469
:04000005080000ED02
:00000001FF
